:020000040800F2
:1000000000000120D5010008250200082502000893
:100010002502000825020008250200080000000053
:1000200000000000000000000000000025020008A1
:100030002502000800000000250200082502000833
:1000400025020008250200082502000825020008F4
:1000500025020008250200082502000825020008E4
:1000600025020008250200082502000825020008D4
:1000700025020008250200082502000825020008C4
:1000800025020008250200082502000800000000E3
:100090000000000000000000000000002502000831
:1000A0002502000825020008250200082502000894
:1000B0002502000825020008250200082502000884
:1000C0002502000825020008250200082502000874
:1000D0002502000825020008250200080000000093
:1000E0002502000825020008250200080000000083
:1000F00000000000000000000000000025020008D1
:100100000000000025020008250200082502000862
:1001100000000000000000000000000000000000DF
:100120002502000825020008250200082502000813
:100130002502000800000000000000000000000090
:100140000000000000000000000000002502000880
:1001500025020008250200082502000825020008E3
:100160002502000825020008000000000000000031
:10017000000000000000000000000000000000007F
:100180000000000025020008000000000000000040
:04019000250200083C
:1001940010B5054C237833B9044B13B10448AFF3BD
:1001A40000800123237010BD000000200000000027
:1001B400F803000808B5034B1BB103490348AFF328
:1001C400008008BD0000000004000020F8030008BF
:1001D400DFF834D0002103E00C4B5B58435004316A
:1001E4000B480C4B42189A42F6D30B4A02E0002308
:1001F40042F8043B094B9A42F9D300F013F800F09B
:10020400D5F800F0A1F87047000001201804000898
:100214000000002000000020000000201C0000203E
:10022400FEE70000024B4FF000629A60704700BF87
:1002340000ED00E001704270704790F9003090F9D1
:10024400012003F5801380339B0210B55200032074
:1002540000FA02F41868914020EA04000843186088
:1002640010BD90F9003090F9012003F580130129A5
:1002740003F180034FEA83231BBF10320121914015
:1002840001FA02F20CBF99619A61704790F900304B
:10029400052B09D8DFE803F003090E13181D0F4AD4
:1002A400136843F00103136070470C4A136843F06A
:1002B4000203F8E7094A136843F00403F3E7074A23
:1002C400136843F00803EEE7044A136843F010038D
:1002D400E9E7024A136843F08003E4E73038024058
:1002E40010B5FFF7D3FF0121BDE81040FFF7A5BF0C
:1002F40010B50446FFF79EFF00232046A370FFF7C6
:10030400EFFF204610BD10B501210446FFF7A9FFF9
:100314000123A37010BD10B500210446FFF7A1FF0F
:100324000023A37010BD000082B00023054A01938E
:10033400019B934203DC019B01330193F8E702B074
:10034400704700BF3F420F001FB50522002101A8DE
:10035400FFF7CEFF0622002102A8FFF7C9FF0722FC
:10036400002103A8FFF7C4FF01A8FFF7CCFF02A8F0
:10037400FFF7D1FF03A8FFF7CEFFFFF7D5FF01A8D2
:10038400FFF7C9FF02A8FFF7BEFF03A8FFF7C3FFEB
:10039400FFF7CAFF01A8FFF7BEFF02A8FFF7BBFFE4
:1003A40003A8FFF7B0FFFFF7BFFFDDE770B50D4E01
:1003B4000D4CA41BA4100025A54209D10B4E0C4CD6
:1003C40000F018F8A41BA4100025A54205D170BDA7
:1003D40056F8253098470135EEE756F8253098470A
:1003E4000135F2E7100400081004000810040008A6
:1003F40014040008F8B500BFF8BC08BC9E4670475A
:0C040400F8B500BFF8BC08BC9E4670476D
:04041000B901000826
:040414009501000846
:04000005080001D519
:00000001FF
