:020000040800F2
:1000000000000120D5010008250200082502000893
:100010002502000825020008250200080000000053
:1000200000000000000000000000000025020008A1
:100030002502000800000000250200082502000833
:1000400025020008250200082502000825020008F4
:1000500025020008250200082502000825020008E4
:1000600025020008250200082502000825020008D4
:1000700025020008250200082502000825020008C4
:1000800025020008250200082502000800000000E3
:100090000000000000000000000000002502000831
:1000A0002502000825020008250200082502000894
:1000B0002502000825020008250200082502000884
:1000C0002502000825020008250200082502000874
:1000D0002502000825020008250200080000000093
:1000E0002502000825020008250200080000000083
:1000F00000000000000000000000000025020008D1
:100100000000000025020008250200082502000862
:1001100000000000000000000000000000000000DF
:100120002502000825020008250200082502000813
:100130002502000800000000000000000000000090
:100140000000000000000000000000002502000880
:1001500025020008250200082502000825020008E3
:100160002502000825020008000000000000000031
:10017000000000000000000000000000000000007F
:100180000000000025020008000000000000000040
:04019000250200083C
:1001940010B5054C237833B9044B13B10448AFF3BD
:1001A40000800123237010BD000000200000000027
:1001B400B403000808B5034B1BB103490348AFF36C
:1001C400008008BD0000000004000020B403000803
:1001D400DFF834D0002103E00C4B5B58435004316A
:1001E4000B480C4B42189A42F6D30B4A02E0002308
:1001F40042F8043B094B9A42F9D300F013F800F09B
:10020400B3F800F08DF8704700000120D403000813
:100214000000002000000020000000201C0000203E
:10022400FEE70000024B4FF000629A60704700BF87
:1002340000ED00E00170427070470378427803F5E6
:10024400801380339B0210B55200032000FA02F49D
:100254001868914020EA04000843186010BD037830
:10026400427803F58013012903F180034FEA8323C5
:100274001BBF10320121914001FA02F20CBF9961B7
:100284009A6170470378052B09D8DFE803F0030966
:100294000E13181D0F4A136843F0010313607047CF
:1002A4000C4A136843F00203F8E70A4A136843F060
:1002B4000403F3E7074A136843F00803EEE7054A2B
:1002C400136843F01003E9E7024A136843F080031C
:1002D400E4E700BF3038024010B5FFF7D3FF012137
:1002E400BDE81040FFF7A9BF10B50446FFF7A2FF11
:1002F40000232046A370FFF7EFFF204610BD10B582
:1003040001210446FFF7ABFF0123A37010BD8178E0
:1003140011F1FF3118BF01218170FFF7A0BF000068
:100324001FB50522002101A8FFF7DEFF00220121ED
:1003340002A8FFF7D9FF01A8FFF7E1FF02A8FFF722
:10034400DEFF084D002401A8FFF7E1FF02A8FFF734
:10035400DEFF0394039BAB42F5DC039B0133039361
:10036400F8E700BF3F420F0070B50D4E0D4CA41BC3
:10037400A4100025A54209D10B4E0C4C00F018F82E
:10038400A41BA4100025A54205D170BD56F8253044
:1003940098470135EEE756F8253098470135F2E7DE
:1003A400CC030008CC030008CC030008D0030008E9
:1003B400F8B500BFF8BC08BC9E467047F8B500BF4E
:0803C400F8BC08BC9E4670471E
:0403CC00B90100086B
:0403D000950100088B
:04000005080001D519
:00000001FF
